770907-14-5074073001KENANGA INVESTMENT BANK BERHAD                              048959951A KARPAGAM A/P ANADRAJAH @ ANANDARAJAH                      14 JALAN 8/149L                              BANDAR BARU SRI PETALING                     KUALA LUMPUR             57000WMYSMYSII               5166  000000010000001000                                                                                                                                               A3851120
540414-10-6161098001MAYBANK INVESTMENT BANK BERHAD                              054693098A PARAMSOTHY A/L V AYADURAI                                 8 JALAN HELANG SIPUT 7                       KEPONG BARU                                  KUALA LUMPUR             52100WMYSMYSII               5166  000000020000020000                                                                                                                                               4612757 
730104-10-6032051001PUBLIC INVESTMENT BANK BERHAD                               049745730A USHA A/P ACHUTHAN                                         32A JALAN SUNGAI BATU 56E/KU6                TAMAN KLANG UTAMA                            KLANG                    42100BMYSMYSII               5166  000000030000002000                                                                                                                                               A2344296
560305-01-5007098002MAYBANK INVESTMENT BANK BERHAD                              059154195A.RAZAK BIN YAACOB                                          NO 10 JALAN P11D/8                           PRESINT 11                                   PUTRAJAYA                62300WMYSMYSBI               5166  000000040000022500                                                                                                                                               4905063 
450715-10-5059079001JF APEX SECURITIES BERHAD                                   005556253AB AZIZ BIN MOHD                                            LOT 3949 JALAN AMAN                          SUNGAI MERAB LUAR BANGI                      KAJANG                   43000BMYSMYSBI               5166  000000050000005000                                                                                                                                               1175282 
561122-01-5703068019AFFIN HWANG INVESTMENT BANK BERHAD                          022010128AB RAHMAN BIN AB LATIF                                      NO 80 JALAN BAYAS SATU 18/14A                SEKSYEN 18                                   SHAH ALAM                40000BMYSMYSBI               5166  000000060000004000                                                                                                                                               5132754 